{
  "_format": "hh-sol-artifact-1",
  "contractName": "AlchemyNFTs",
  "sourceName": "contracts/AlchemyNFTs.sol",
  "abi": [
    {
      "inputs": [],
      "stateMutability": "nonpayable",
      "type": "constructor"
    },
    {
      "anonymous": false,
      "inputs": [
        {
          "indexed": true,
          "internalType": "address",
          "name": "owner",
          "type": "address"
        },
        {
          "indexed": true,
          "internalType": "address",
          "name": "approved",
          "type": "address"
        },
        {
          "indexed": true,
          "internalType": "uint256",
          "name": "tokenId",
          "type": "uint256"
        }
      ],
      "name": "Approval",
      "type": "event"
    },
    {
      "anonymous": false,
      "inputs": [
        {
          "indexed": true,
          "internalType": "address",
          "name": "owner",
          "type": "address"
        },
        {
          "indexed": true,
          "internalType": "address",
          "name": "operator",
          "type": "address"
        },
        {
          "indexed": false,
          "internalType": "bool",
          "name": "approved",
          "type": "bool"
        }
      ],
      "name": "ApprovalForAll",
      "type": "event"
    },
    {
      "anonymous": false,
      "inputs": [
        {
          "indexed": true,
          "internalType": "bytes32",
          "name": "role",
          "type": "bytes32"
        },
        {
          "indexed": true,
          "internalType": "bytes32",
          "name": "previousAdminRole",
          "type": "bytes32"
        },
        {
          "indexed": true,
          "internalType": "bytes32",
          "name": "newAdminRole",
          "type": "bytes32"
        }
      ],
      "name": "RoleAdminChanged",
      "type": "event"
    },
    {
      "anonymous": false,
      "inputs": [
        {
          "indexed": true,
          "internalType": "bytes32",
          "name": "role",
          "type": "bytes32"
        },
        {
          "indexed": true,
          "internalType": "address",
          "name": "account",
          "type": "address"
        },
        {
          "indexed": true,
          "internalType": "address",
          "name": "sender",
          "type": "address"
        }
      ],
      "name": "RoleGranted",
      "type": "event"
    },
    {
      "anonymous": false,
      "inputs": [
        {
          "indexed": true,
          "internalType": "bytes32",
          "name": "role",
          "type": "bytes32"
        },
        {
          "indexed": true,
          "internalType": "address",
          "name": "account",
          "type": "address"
        },
        {
          "indexed": true,
          "internalType": "address",
          "name": "sender",
          "type": "address"
        }
      ],
      "name": "RoleRevoked",
      "type": "event"
    },
    {
      "anonymous": false,
      "inputs": [
        {
          "indexed": true,
          "internalType": "address",
          "name": "from",
          "type": "address"
        },
        {
          "indexed": true,
          "internalType": "address",
          "name": "to",
          "type": "address"
        },
        {
          "indexed": true,
          "internalType": "uint256",
          "name": "tokenId",
          "type": "uint256"
        }
      ],
      "name": "Transfer",
      "type": "event"
    },
    {
      "inputs": [],
      "name": "DEFAULT_ADMIN_ROLE",
      "outputs": [
        {
          "internalType": "bytes32",
          "name": "",
          "type": "bytes32"
        }
      ],
      "stateMutability": "view",
      "type": "function"
    },
    {
      "inputs": [],
      "name": "MINTER_ROLE",
      "outputs": [
        {
          "internalType": "bytes32",
          "name": "",
          "type": "bytes32"
        }
      ],
      "stateMutability": "view",
      "type": "function"
    },
    {
      "inputs": [
        {
          "internalType": "address",
          "name": "to",
          "type": "address"
        },
        {
          "internalType": "uint256",
          "name": "tokenId",
          "type": "uint256"
        }
      ],
      "name": "approve",
      "outputs": [],
      "stateMutability": "nonpayable",
      "type": "function"
    },
    {
      "inputs": [
        {
          "internalType": "address",
          "name": "owner",
          "type": "address"
        }
      ],
      "name": "balanceOf",
      "outputs": [
        {
          "internalType": "uint256",
          "name": "",
          "type": "uint256"
        }
      ],
      "stateMutability": "view",
      "type": "function"
    },
    {
      "inputs": [
        {
          "internalType": "uint256",
          "name": "tokenId",
          "type": "uint256"
        }
      ],
      "name": "getApproved",
      "outputs": [
        {
          "internalType": "address",
          "name": "",
          "type": "address"
        }
      ],
      "stateMutability": "view",
      "type": "function"
    },
    {
      "inputs": [
        {
          "internalType": "bytes32",
          "name": "role",
          "type": "bytes32"
        }
      ],
      "name": "getRoleAdmin",
      "outputs": [
        {
          "internalType": "bytes32",
          "name": "",
          "type": "bytes32"
        }
      ],
      "stateMutability": "view",
      "type": "function"
    },
    {
      "inputs": [
        {
          "internalType": "bytes32",
          "name": "role",
          "type": "bytes32"
        },
        {
          "internalType": "address",
          "name": "account",
          "type": "address"
        }
      ],
      "name": "grantRole",
      "outputs": [],
      "stateMutability": "nonpayable",
      "type": "function"
    },
    {
      "inputs": [
        {
          "internalType": "bytes32",
          "name": "role",
          "type": "bytes32"
        },
        {
          "internalType": "address",
          "name": "account",
          "type": "address"
        }
      ],
      "name": "hasRole",
      "outputs": [
        {
          "internalType": "bool",
          "name": "",
          "type": "bool"
        }
      ],
      "stateMutability": "view",
      "type": "function"
    },
    {
      "inputs": [
        {
          "internalType": "address",
          "name": "owner",
          "type": "address"
        },
        {
          "internalType": "address",
          "name": "operator",
          "type": "address"
        }
      ],
      "name": "isApprovedForAll",
      "outputs": [
        {
          "internalType": "bool",
          "name": "",
          "type": "bool"
        }
      ],
      "stateMutability": "view",
      "type": "function"
    },
    {
      "inputs": [],
      "name": "name",
      "outputs": [
        {
          "internalType": "string",
          "name": "",
          "type": "string"
        }
      ],
      "stateMutability": "view",
      "type": "function"
    },
    {
      "inputs": [
        {
          "internalType": "uint256",
          "name": "tokenId",
          "type": "uint256"
        }
      ],
      "name": "ownerOf",
      "outputs": [
        {
          "internalType": "address",
          "name": "",
          "type": "address"
        }
      ],
      "stateMutability": "view",
      "type": "function"
    },
    {
      "inputs": [
        {
          "internalType": "bytes32",
          "name": "role",
          "type": "bytes32"
        },
        {
          "internalType": "address",
          "name": "account",
          "type": "address"
        }
      ],
      "name": "renounceRole",
      "outputs": [],
      "stateMutability": "nonpayable",
      "type": "function"
    },
    {
      "inputs": [
        {
          "internalType": "bytes32",
          "name": "role",
          "type": "bytes32"
        },
        {
          "internalType": "address",
          "name": "account",
          "type": "address"
        }
      ],
      "name": "revokeRole",
      "outputs": [],
      "stateMutability": "nonpayable",
      "type": "function"
    },
    {
      "inputs": [
        {
          "internalType": "address",
          "name": "to",
          "type": "address"
        },
        {
          "internalType": "string",
          "name": "uri",
          "type": "string"
        }
      ],
      "name": "safeMint",
      "outputs": [],
      "stateMutability": "nonpayable",
      "type": "function"
    },
    {
      "inputs": [
        {
          "internalType": "address",
          "name": "from",
          "type": "address"
        },
        {
          "internalType": "address",
          "name": "to",
          "type": "address"
        },
        {
          "internalType": "uint256",
          "name": "tokenId",
          "type": "uint256"
        }
      ],
      "name": "safeTransferFrom",
      "outputs": [],
      "stateMutability": "nonpayable",
      "type": "function"
    },
    {
      "inputs": [
        {
          "internalType": "address",
          "name": "from",
          "type": "address"
        },
        {
          "internalType": "address",
          "name": "to",
          "type": "address"
        },
        {
          "internalType": "uint256",
          "name": "tokenId",
          "type": "uint256"
        },
        {
          "internalType": "bytes",
          "name": "data",
          "type": "bytes"
        }
      ],
      "name": "safeTransferFrom",
      "outputs": [],
      "stateMutability": "nonpayable",
      "type": "function"
    },
    {
      "inputs": [
        {
          "internalType": "address",
          "name": "operator",
          "type": "address"
        },
        {
          "internalType": "bool",
          "name": "approved",
          "type": "bool"
        }
      ],
      "name": "setApprovalForAll",
      "outputs": [],
      "stateMutability": "nonpayable",
      "type": "function"
    },
    {
      "inputs": [
        {
          "internalType": "bytes4",
          "name": "interfaceId",
          "type": "bytes4"
        }
      ],
      "name": "supportsInterface",
      "outputs": [
        {
          "internalType": "bool",
          "name": "",
          "type": "bool"
        }
      ],
      "stateMutability": "view",
      "type": "function"
    },
    {
      "inputs": [],
      "name": "symbol",
      "outputs": [
        {
          "internalType": "string",
          "name": "",
          "type": "string"
        }
      ],
      "stateMutability": "view",
      "type": "function"
    },
    {
      "inputs": [
        {
          "internalType": "uint256",
          "name": "tokenId",
          "type": "uint256"
        }
      ],
      "name": "tokenURI",
      "outputs": [
        {
          "internalType": "string",
          "name": "",
          "type": "string"
        }
      ],
      "stateMutability": "view",
      "type": "function"
    },
    {
      "inputs": [
        {
          "internalType": "address",
          "name": "from",
          "type": "address"
        },
        {
          "internalType": "address",
          "name": "to",
          "type": "address"
        },
        {
          "internalType": "uint256",
          "name": "tokenId",
          "type": "uint256"
        }
      ],
      "name": "transferFrom",
      "outputs": [],
      "stateMutability": "nonpayable",
      "type": "function"
    }
  ],
  "bytecode": "0x60806040523480156200001157600080fd5b50604080518082018252600b81526a416c6368656d794e46547360a81b602080830191825283518085019094526003845262414c4360e81b90840152815191929162000060916000916200015f565b508051620000769060019060208401906200015f565b506200008891506000905033620000ba565b620000b47f9f2df0fed2c77648de5860a4cc508cd0818c85b8b8a1ab4ceeef8d981c8956a633620000ba565b62000242565b60008281526007602090815260408083206001600160a01b038516845290915290205460ff166200015b5760008281526007602090815260408083206001600160a01b03851684529091529020805460ff191660011790556200011a3390565b6001600160a01b0316816001600160a01b0316837f2f8788117e7eff1d82e926ec794901d17c78024a50270940304540a733656f0d60405160405180910390a45b5050565b8280546200016d9062000205565b90600052602060002090601f016020900481019282620001915760008555620001dc565b82601f10620001ac57805160ff1916838001178555620001dc565b82800160010185558215620001dc579182015b82811115620001dc578251825591602001919060010190620001bf565b50620001ea929150620001ee565b5090565b5b80821115620001ea5760008155600101620001ef565b600181811c908216806200021a57607f821691505b602082108114156200023c57634e487b7160e01b600052602260045260246000fd5b50919050565b611c5080620002526000396000f3fe608060405234801561001057600080fd5b50600436106101375760003560e01c806370a08231116100b8578063b88d4fde1161007c578063b88d4fde14610292578063c87b56dd146102a5578063d204c45e146102b8578063d5391393146102cb578063d547741f146102f2578063e985e9c51461030557600080fd5b806370a082311461024957806391d148541461025c57806395d89b411461026f578063a217fddf14610277578063a22cb4651461027f57600080fd5b8063248a9ca3116100ff578063248a9ca3146101cc5780632f2ff15d146101fd57806336568abe1461021057806342842e0e146102235780636352211e1461023657600080fd5b806301ffc9a71461013c57806306fdde0314610164578063081812fc14610179578063095ea7b3146101a457806323b872dd146101b9575b600080fd5b61014f61014a366004611649565b610341565b60405190151581526020015b60405180910390f35b61016c610352565b60405161015b91906116be565b61018c6101873660046116d1565b6103e4565b6040516001600160a01b03909116815260200161015b565b6101b76101b2366004611706565b61040b565b005b6101b76101c7366004611730565b610526565b6101ef6101da3660046116d1565b60009081526007602052604090206001015490565b60405190815260200161015b565b6101b761020b36600461176c565b610557565b6101b761021e36600461176c565b61057c565b6101b7610231366004611730565b6105fa565b61018c6102443660046116d1565b610615565b6101ef610257366004611798565b610675565b61014f61026a36600461176c565b6106fb565b61016c610726565b6101ef600081565b6101b761028d3660046117b3565b610735565b6101b76102a036600461187b565b610740565b61016c6102b33660046116d1565b610778565b6101b76102c63660046118f7565b610783565b6101ef7f9f2df0fed2c77648de5860a4cc508cd0818c85b8b8a1ab4ceeef8d981c8956a681565b6101b761030036600461176c565b6107dc565b61014f610313366004611959565b6001600160a01b03918216600090815260056020908152604080832093909416825291909152205460ff1690565b600061034c82610801565b92915050565b60606000805461036190611983565b80601f016020809104026020016040519081016040528092919081815260200182805461038d90611983565b80156103da5780601f106103af576101008083540402835291602001916103da565b820191906000526020600020905b8154815290600101906020018083116103bd57829003601f168201915b5050505050905090565b60006103ef82610826565b506000908152600460205260409020546001600160a01b031690565b600061041682610615565b9050806001600160a01b0316836001600160a01b031614156104895760405162461bcd60e51b815260206004820152602160248201527f4552433732313a20617070726f76616c20746f2063757272656e74206f776e656044820152603960f91b60648201526084015b60405180910390fd5b336001600160a01b03821614806104a557506104a58133610313565b6105175760405162461bcd60e51b815260206004820152603d60248201527f4552433732313a20617070726f76652063616c6c6572206973206e6f7420746f60448201527f6b656e206f776e6572206f7220617070726f76656420666f7220616c6c0000006064820152608401610480565b6105218383610888565b505050565b61053033826108f6565b61054c5760405162461bcd60e51b8152600401610480906119be565b610521838383610975565b60008281526007602052604090206001015461057281610ad9565b6105218383610ae3565b6001600160a01b03811633146105ec5760405162461bcd60e51b815260206004820152602f60248201527f416363657373436f6e74726f6c3a2063616e206f6e6c792072656e6f756e636560448201526e103937b632b9903337b91039b2b63360891b6064820152608401610480565b6105f68282610b69565b5050565b61052183838360405180602001604052806000815250610740565b6000818152600260205260408120546001600160a01b03168061034c5760405162461bcd60e51b8152602060048201526018602482015277115490cdcc8c4e881a5b9d985b1a59081d1bdad95b88125160421b6044820152606401610480565b60006001600160a01b0382166106df5760405162461bcd60e51b815260206004820152602960248201527f4552433732313a2061646472657373207a65726f206973206e6f7420612076616044820152683634b21037bbb732b960b91b6064820152608401610480565b506001600160a01b031660009081526003602052604090205490565b60009182526007602090815260408084206001600160a01b0393909316845291905290205460ff1690565b60606001805461036190611983565b6105f6338383610bd0565b61074a33836108f6565b6107665760405162461bcd60e51b8152600401610480906119be565b61077284848484610c9f565b50505050565b606061034c82610cd2565b7f9f2df0fed2c77648de5860a4cc508cd0818c85b8b8a1ab4ceeef8d981c8956a66107ad81610ad9565b60006107b860085490565b90506107c8600880546001019055565b6107d28482610ddb565b6107728184610df5565b6000828152600760205260409020600101546107f781610ad9565b6105218383610b69565b60006001600160e01b03198216637965db0b60e01b148061034c575061034c82610e8f565b6000818152600260205260409020546001600160a01b03166108855760405162461bcd60e51b8152602060048201526018602482015277115490cdcc8c4e881a5b9d985b1a59081d1bdad95b88125160421b6044820152606401610480565b50565b600081815260046020526040902080546001600160a01b0319166001600160a01b03841690811790915581906108bd82610615565b6001600160a01b03167f8c5be1e5ebec7d5bd14f71427d1e84f3dd0314c0f7b2291e5b200ac8c7c3b92560405160405180910390a45050565b60008061090283610615565b9050806001600160a01b0316846001600160a01b0316148061094957506001600160a01b0380821660009081526005602090815260408083209388168352929052205460ff165b8061096d5750836001600160a01b0316610962846103e4565b6001600160a01b0316145b949350505050565b826001600160a01b031661098882610615565b6001600160a01b0316146109ae5760405162461bcd60e51b815260040161048090611a0b565b6001600160a01b038216610a105760405162461bcd60e51b8152602060048201526024808201527f4552433732313a207472616e7366657220746f20746865207a65726f206164646044820152637265737360e01b6064820152608401610480565b826001600160a01b0316610a2382610615565b6001600160a01b031614610a495760405162461bcd60e51b815260040161048090611a0b565b600081815260046020908152604080832080546001600160a01b03199081169091556001600160a01b0387811680865260038552838620805460001901905590871680865283862080546001019055868652600290945282852080549092168417909155905184937fddf252ad1be2c89b69c2b068fc378daa952ba7f163c4a11628f55a4df523b3ef91a4505050565b6108858133610edf565b610aed82826106fb565b6105f65760008281526007602090815260408083206001600160a01b03851684529091529020805460ff19166001179055610b253390565b6001600160a01b0316816001600160a01b0316837f2f8788117e7eff1d82e926ec794901d17c78024a50270940304540a733656f0d60405160405180910390a45050565b610b7382826106fb565b156105f65760008281526007602090815260408083206001600160a01b0385168085529252808320805460ff1916905551339285917ff6391f5c32d9c69d2a47ea670b442974b53935d1edc7fd64eb21e047a839171b9190a45050565b816001600160a01b0316836001600160a01b03161415610c325760405162461bcd60e51b815260206004820152601960248201527f4552433732313a20617070726f766520746f2063616c6c6572000000000000006044820152606401610480565b6001600160a01b03838116600081815260056020908152604080832094871680845294825291829020805460ff191686151590811790915591519182527f17307eab39ab6107e8899845ad3d59bd9653f200f220920489ca2b5937696c31910160405180910390a3505050565b610caa848484610975565b610cb684848484610f38565b6107725760405162461bcd60e51b815260040161048090611a50565b6060610cdd82610826565b60008281526006602052604081208054610cf690611983565b80601f0160208091040260200160405190810160405280929190818152602001828054610d2290611983565b8015610d6f5780601f10610d4457610100808354040283529160200191610d6f565b820191906000526020600020905b815481529060010190602001808311610d5257829003601f168201915b505050505090506000610d8d60408051602081019091526000815290565b9050805160001415610da0575092915050565b815115610dd2578082604051602001610dba929190611aa2565b60405160208183030381529060405292505050919050565b61096d84611045565b6105f68282604051806020016040528060008152506110b9565b6000828152600260205260409020546001600160a01b0316610e705760405162461bcd60e51b815260206004820152602e60248201527f45524337323155524953746f726167653a2055524920736574206f66206e6f6e60448201526d32bc34b9ba32b73a103a37b5b2b760911b6064820152608401610480565b600082815260066020908152604090912082516105219284019061159a565b60006001600160e01b031982166380ac58cd60e01b1480610ec057506001600160e01b03198216635b5e139f60e01b145b8061034c57506301ffc9a760e01b6001600160e01b031983161461034c565b610ee982826106fb565b6105f657610ef6816110ec565b610f018360206110fe565b604051602001610f12929190611ad1565b60408051601f198184030181529082905262461bcd60e51b8252610480916004016116be565b60006001600160a01b0384163b1561103a57604051630a85bd0160e11b81526001600160a01b0385169063150b7a0290610f7c903390899088908890600401611b46565b602060405180830381600087803b158015610f9657600080fd5b505af1925050508015610fc6575060408051601f3d908101601f19168201909252610fc391810190611b83565b60015b611020573d808015610ff4576040519150601f19603f3d011682016040523d82523d6000602084013e610ff9565b606091505b5080516110185760405162461bcd60e51b815260040161048090611a50565b805181602001fd5b6001600160e01b031916630a85bd0160e11b14905061096d565b506001949350505050565b606061105082610826565b600061106760408051602081019091526000815290565b9050600081511161108757604051806020016040528060008152506110b2565b806110918461129a565b6040516020016110a2929190611aa2565b6040516020818303038152906040525b9392505050565b6110c38383611337565b6110d06000848484610f38565b6105215760405162461bcd60e51b815260040161048090611a50565b606061034c6001600160a01b03831660145b6060600061110d836002611bb6565b611118906002611bd5565b67ffffffffffffffff811115611130576111306117ef565b6040519080825280601f01601f19166020018201604052801561115a576020820181803683370190505b509050600360fc1b8160008151811061117557611175611bed565b60200101906001600160f81b031916908160001a905350600f60fb1b816001815181106111a4576111a4611bed565b60200101906001600160f81b031916908160001a90535060006111c8846002611bb6565b6111d3906001611bd5565b90505b600181111561124b576f181899199a1a9b1b9c1cb0b131b232b360811b85600f166010811061120757611207611bed565b1a60f81b82828151811061121d5761121d611bed565b60200101906001600160f81b031916908160001a90535060049490941c9361124481611c03565b90506111d6565b5083156110b25760405162461bcd60e51b815260206004820181905260248201527f537472696e67733a20686578206c656e67746820696e73756666696369656e746044820152606401610480565b606060006112a7836114c2565b600101905060008167ffffffffffffffff8111156112c7576112c76117ef565b6040519080825280601f01601f1916602001820160405280156112f1576020820181803683370190505b5090508181016020015b600019016f181899199a1a9b1b9c1cb0b131b232b360811b600a86061a8153600a850494508461132a5761132f565b6112fb565b509392505050565b6001600160a01b03821661138d5760405162461bcd60e51b815260206004820181905260248201527f4552433732313a206d696e7420746f20746865207a65726f20616464726573736044820152606401610480565b6000818152600260205260409020546001600160a01b0316156113f25760405162461bcd60e51b815260206004820152601c60248201527f4552433732313a20746f6b656e20616c7265616479206d696e746564000000006044820152606401610480565b6000818152600260205260409020546001600160a01b0316156114575760405162461bcd60e51b815260206004820152601c60248201527f4552433732313a20746f6b656e20616c7265616479206d696e746564000000006044820152606401610480565b6001600160a01b038216600081815260036020908152604080832080546001019055848352600290915280822080546001600160a01b0319168417905551839291907fddf252ad1be2c89b69c2b068fc378daa952ba7f163c4a11628f55a4df523b3ef908290a45050565b60008072184f03e93ff9f4daa797ed6e38ed64bf6a1f0160401b83106115015772184f03e93ff9f4daa797ed6e38ed64bf6a1f0160401b830492506040015b6d04ee2d6d415b85acef8100000000831061152d576d04ee2d6d415b85acef8100000000830492506020015b662386f26fc10000831061154b57662386f26fc10000830492506010015b6305f5e1008310611563576305f5e100830492506008015b612710831061157757612710830492506004015b60648310611589576064830492506002015b600a831061034c5760010192915050565b8280546115a690611983565b90600052602060002090601f0160209004810192826115c8576000855561160e565b82601f106115e157805160ff191683800117855561160e565b8280016001018555821561160e579182015b8281111561160e5782518255916020019190600101906115f3565b5061161a92915061161e565b5090565b5b8082111561161a576000815560010161161f565b6001600160e01b03198116811461088557600080fd5b60006020828403121561165b57600080fd5b81356110b281611633565b60005b83811015611681578181015183820152602001611669565b838111156107725750506000910152565b600081518084526116aa816020860160208601611666565b601f01601f19169290920160200192915050565b6020815260006110b26020830184611692565b6000602082840312156116e357600080fd5b5035919050565b80356001600160a01b038116811461170157600080fd5b919050565b6000806040838503121561171957600080fd5b611722836116ea565b946020939093013593505050565b60008060006060848603121561174557600080fd5b61174e846116ea565b925061175c602085016116ea565b9150604084013590509250925092565b6000806040838503121561177f57600080fd5b8235915061178f602084016116ea565b90509250929050565b6000602082840312156117aa57600080fd5b6110b2826116ea565b600080604083850312156117c657600080fd5b6117cf836116ea565b9150602083013580151581146117e457600080fd5b809150509250929050565b634e487b7160e01b600052604160045260246000fd5b600067ffffffffffffffff80841115611820576118206117ef565b604051601f8501601f19908116603f01168101908282118183101715611848576118486117ef565b8160405280935085815286868601111561186157600080fd5b858560208301376000602087830101525050509392505050565b6000806000806080858703121561189157600080fd5b61189a856116ea565b93506118a8602086016116ea565b925060408501359150606085013567ffffffffffffffff8111156118cb57600080fd5b8501601f810187136118dc57600080fd5b6118eb87823560208401611805565b91505092959194509250565b6000806040838503121561190a57600080fd5b611913836116ea565b9150602083013567ffffffffffffffff81111561192f57600080fd5b8301601f8101851361194057600080fd5b61194f85823560208401611805565b9150509250929050565b6000806040838503121561196c57600080fd5b611975836116ea565b915061178f602084016116ea565b600181811c9082168061199757607f821691505b602082108114156119b857634e487b7160e01b600052602260045260246000fd5b50919050565b6020808252602d908201527f4552433732313a2063616c6c6572206973206e6f7420746f6b656e206f776e6560408201526c1c881bdc88185c1c1c9bdd9959609a1b606082015260800190565b60208082526025908201527f4552433732313a207472616e736665722066726f6d20696e636f72726563742060408201526437bbb732b960d91b606082015260800190565b60208082526032908201527f4552433732313a207472616e7366657220746f206e6f6e20455243373231526560408201527131b2b4bb32b91034b6b83632b6b2b73a32b960711b606082015260800190565b60008351611ab4818460208801611666565b835190830190611ac8818360208801611666565b01949350505050565b7f416363657373436f6e74726f6c3a206163636f756e7420000000000000000000815260008351611b09816017850160208801611666565b7001034b99036b4b9b9b4b733903937b6329607d1b6017918401918201528351611b3a816028840160208801611666565b01602801949350505050565b6001600160a01b0385811682528416602082015260408101839052608060608201819052600090611b7990830184611692565b9695505050505050565b600060208284031215611b9557600080fd5b81516110b281611633565b634e487b7160e01b600052601160045260246000fd5b6000816000190483118215151615611bd057611bd0611ba0565b500290565b60008219821115611be857611be8611ba0565b500190565b634e487b7160e01b600052603260045260246000fd5b600081611c1257611c12611ba0565b50600019019056fea2646970667358221220b0e3061df5f80998f84daa25c0bfd3715ee4fd6993f4b65cd09cb0610a68499364736f6c63430008090033",
  "linkReferences": {},
  "deployedLinkReferences": {}
}